{
  "contractName": "DuneSpice",
  "abi": [
    {
      "inputs": [
        {
          "internalType": "uint256",
          "name": "initialSupply",
          "type": "uint256"
        }
      ],
      "stateMutability": "nonpayable",
      "type": "constructor"
    },
    {
      "anonymous": false,
      "inputs": [
        {
          "indexed": true,
          "internalType": "address",
          "name": "owner",
          "type": "address"
        },
        {
          "indexed": true,
          "internalType": "address",
          "name": "spender",
          "type": "address"
        },
        {
          "indexed": false,
          "internalType": "uint256",
          "name": "value",
          "type": "uint256"
        }
      ],
      "name": "Approval",
      "type": "event"
    },
    {
      "anonymous": false,
      "inputs": [
        {
          "indexed": true,
          "internalType": "address",
          "name": "previousOwner",
          "type": "address"
        },
        {
          "indexed": true,
          "internalType": "address",
          "name": "newOwner",
          "type": "address"
        }
      ],
      "name": "OwnershipTransferred",
      "type": "event"
    },
    {
      "anonymous": false,
      "inputs": [
        {
          "indexed": true,
          "internalType": "address",
          "name": "from",
          "type": "address"
        },
        {
          "indexed": true,
          "internalType": "address",
          "name": "to",
          "type": "address"
        },
        {
          "indexed": false,
          "internalType": "uint256",
          "name": "value",
          "type": "uint256"
        }
      ],
      "name": "Transfer",
      "type": "event"
    },
    {
      "inputs": [
        {
          "internalType": "address",
          "name": "owner",
          "type": "address"
        },
        {
          "internalType": "address",
          "name": "spender",
          "type": "address"
        }
      ],
      "name": "allowance",
      "outputs": [
        {
          "internalType": "uint256",
          "name": "",
          "type": "uint256"
        }
      ],
      "stateMutability": "view",
      "type": "function",
      "constant": true
    },
    {
      "inputs": [
        {
          "internalType": "address",
          "name": "spender",
          "type": "address"
        },
        {
          "internalType": "uint256",
          "name": "amount",
          "type": "uint256"
        }
      ],
      "name": "approve",
      "outputs": [
        {
          "internalType": "bool",
          "name": "",
          "type": "bool"
        }
      ],
      "stateMutability": "nonpayable",
      "type": "function"
    },
    {
      "inputs": [
        {
          "internalType": "address",
          "name": "account",
          "type": "address"
        }
      ],
      "name": "balanceOf",
      "outputs": [
        {
          "internalType": "uint256",
          "name": "",
          "type": "uint256"
        }
      ],
      "stateMutability": "view",
      "type": "function",
      "constant": true
    },
    {
      "inputs": [],
      "name": "decimals",
      "outputs": [
        {
          "internalType": "uint8",
          "name": "",
          "type": "uint8"
        }
      ],
      "stateMutability": "view",
      "type": "function",
      "constant": true
    },
    {
      "inputs": [
        {
          "internalType": "address",
          "name": "spender",
          "type": "address"
        },
        {
          "internalType": "uint256",
          "name": "subtractedValue",
          "type": "uint256"
        }
      ],
      "name": "decreaseAllowance",
      "outputs": [
        {
          "internalType": "bool",
          "name": "",
          "type": "bool"
        }
      ],
      "stateMutability": "nonpayable",
      "type": "function"
    },
    {
      "inputs": [
        {
          "internalType": "address",
          "name": "spender",
          "type": "address"
        },
        {
          "internalType": "uint256",
          "name": "addedValue",
          "type": "uint256"
        }
      ],
      "name": "increaseAllowance",
      "outputs": [
        {
          "internalType": "bool",
          "name": "",
          "type": "bool"
        }
      ],
      "stateMutability": "nonpayable",
      "type": "function"
    },
    {
      "inputs": [],
      "name": "name",
      "outputs": [
        {
          "internalType": "string",
          "name": "",
          "type": "string"
        }
      ],
      "stateMutability": "view",
      "type": "function",
      "constant": true
    },
    {
      "inputs": [],
      "name": "owner",
      "outputs": [
        {
          "internalType": "address",
          "name": "",
          "type": "address"
        }
      ],
      "stateMutability": "view",
      "type": "function",
      "constant": true
    },
    {
      "inputs": [],
      "name": "renounceOwnership",
      "outputs": [],
      "stateMutability": "nonpayable",
      "type": "function"
    },
    {
      "inputs": [],
      "name": "symbol",
      "outputs": [
        {
          "internalType": "string",
          "name": "",
          "type": "string"
        }
      ],
      "stateMutability": "view",
      "type": "function",
      "constant": true
    },
    {
      "inputs": [],
      "name": "totalSupply",
      "outputs": [
        {
          "internalType": "uint256",
          "name": "",
          "type": "uint256"
        }
      ],
      "stateMutability": "view",
      "type": "function",
      "constant": true
    },
    {
      "inputs": [
        {
          "internalType": "address",
          "name": "recipient",
          "type": "address"
        },
        {
          "internalType": "uint256",
          "name": "amount",
          "type": "uint256"
        }
      ],
      "name": "transfer",
      "outputs": [
        {
          "internalType": "bool",
          "name": "",
          "type": "bool"
        }
      ],
      "stateMutability": "nonpayable",
      "type": "function"
    },
    {
      "inputs": [
        {
          "internalType": "address",
          "name": "sender",
          "type": "address"
        },
        {
          "internalType": "address",
          "name": "recipient",
          "type": "address"
        },
        {
          "internalType": "uint256",
          "name": "amount",
          "type": "uint256"
        }
      ],
      "name": "transferFrom",
      "outputs": [
        {
          "internalType": "bool",
          "name": "",
          "type": "bool"
        }
      ],
      "stateMutability": "nonpayable",
      "type": "function"
    },
    {
      "inputs": [
        {
          "internalType": "address",
          "name": "newOwner",
          "type": "address"
        }
      ],
      "name": "transferOwnership",
      "outputs": [],
      "stateMutability": "nonpayable",
      "type": "function"
    },
    {
      "inputs": [
        {
          "internalType": "uint256",
          "name": "_amount",
          "type": "uint256"
        }
      ],
      "name": "Burn",
      "outputs": [],
      "stateMutability": "nonpayable",
      "type": "function"
    },
    {
      "inputs": [
        {
          "internalType": "address",
          "name": "_address",
          "type": "address"
        },
        {
          "internalType": "uint256",
          "name": "_amount",
          "type": "uint256"
        }
      ],
      "name": "BurnFrom",
      "outputs": [],
      "stateMutability": "nonpayable",
      "type": "function"
    },
    {
      "inputs": [
        {
          "internalType": "address",
          "name": "_toAddress",
          "type": "address"
        },
        {
          "internalType": "uint256",
          "name": "_amountCreating",
          "type": "uint256"
        }
      ],
      "name": "GiveNewTokens",
      "outputs": [],
      "stateMutability": "nonpayable",
      "type": "function"
    }
  ],
  "bytecode": "0x60806040523480156200001157600080fd5b506040516200147638038062001476833981810160405260208110156200003757600080fd5b5051604080518082018252600981526844756e65537069636560b81b6020828101918252835180850190945260038085526204453560ec1b918501919091528251929392620000879290620002e3565b5080516200009d906004906020840190620002e3565b50506005805460ff19166012179055506000620000c26001600160e01b036200014916565b60058054610100600160a81b0319166101006001600160a01b03841690810291909117909155604051919250906000907f8be0079c531659141344cd1fd0a4f28419497f9722a3daafe3b4186f6b6457e0908290a3506200012d33826001600160e01b036200014e16565b6200014260016001600160e01b036200026616565b5062000385565b335b90565b6001600160a01b038216620001aa576040805162461bcd60e51b815260206004820152601f60248201527f45524332303a206d696e7420746f20746865207a65726f206164647265737300604482015290519081900360640190fd5b620001c1600083836001600160e01b036200027c16565b620001dd816002546200028160201b6200099d1790919060201c565b6002556001600160a01b03821660009081526020818152604090912054620002109183906200099d62000281821b17901c565b6001600160a01b0383166000818152602081815260408083209490945583518581529351929391927fddf252ad1be2c89b69c2b068fc378daa952ba7f163c4a11628f55a4df523b3ef9281900390910190a35050565b6005805460ff191660ff92909216919091179055565b505050565b600082820183811015620002dc576040805162461bcd60e51b815260206004820152601b60248201527f536166654d6174683a206164646974696f6e206f766572666c6f770000000000604482015290519081900360640190fd5b9392505050565b828054600181600116156101000203166002900490600052602060002090601f016020900481019282601f106200032657805160ff191683800117855562000356565b8280016001018555821562000356579182015b828111156200035657825182559160200191906001019062000339565b506200036492915062000368565b5090565b6200014b91905b808211156200036457600081556001016200036f565b6110e180620003956000396000f3fe608060405234801561001057600080fd5b50600436106100eb5760003560e01c806370a082311161009257806370a08231146102a1578063715018a6146102c75780638da5cb5b146102cf57806395d89b41146102f3578063a457c2d7146102fb578063a9059cbb14610327578063b90306ad14610353578063dd62ed3e14610370578063f2fde38b1461039e576100eb565b8063019f1254146100f057806306fdde031461011e578063095ea7b31461019b57806318160ddd146101db57806323b872dd146101f557806328e1a6041461022b578063313ce567146102575780633950935114610275575b600080fd5b61011c6004803603604081101561010657600080fd5b506001600160a01b0381351690602001356103c4565b005b61012661042f565b6040805160208082528351818301528351919283929083019185019080838360005b83811015610160578181015183820152602001610148565b50505050905090810190601f16801561018d5780820380516001836020036101000a031916815260200191505b509250505060405180910390f35b6101c7600480360360408110156101b157600080fd5b506001600160a01b0381351690602001356104c5565b604080519115158252519081900360200190f35b6101e36104e2565b60408051918252519081900360200190f35b6101c76004803603606081101561020b57600080fd5b506001600160a01b038135811691602081013590911690604001356104e8565b61011c6004803603604081101561024157600080fd5b506001600160a01b038135169060200135610575565b61025f6105dc565b6040805160ff9092168252519081900360200190f35b6101c76004803603604081101561028b57600080fd5b506001600160a01b0381351690602001356105e5565b6101e3600480360360208110156102b757600080fd5b50356001600160a01b0316610639565b61011c610654565b6102d7610701565b604080516001600160a01b039092168252519081900360200190f35b610126610715565b6101c76004803603604081101561031157600080fd5b506001600160a01b038135169060200135610776565b6101c76004803603604081101561033d57600080fd5b506001600160a01b0381351690602001356107e4565b61011c6004803603602081101561036957600080fd5b50356107f8565b6101e36004803603604081101561038657600080fd5b506001600160a01b0381358116916020013516610869565b61011c600480360360208110156103b457600080fd5b50356001600160a01b0316610894565b6103cc6109fe565b60055461010090046001600160a01b03908116911614610421576040805162461bcd60e51b81526020600482018190526024820152600080516020610fdd833981519152604482015290519081900360640190fd5b61042b8282610a02565b5050565b60038054604080516020601f60026000196101006001881615020190951694909404938401819004810282018101909252828152606093909290918301828280156104bb5780601f10610490576101008083540402835291602001916104bb565b820191906000526020600020905b81548152906001019060200180831161049e57829003601f168201915b5050505050905090565b60006104d96104d26109fe565b8484610aec565b50600192915050565b60025490565b60006104f5848484610bd8565b61056b846105016109fe565b61056685604051806060016040528060288152602001610fb5602891396001600160a01b038a1660009081526001602052604081209061053f6109fe565b6001600160a01b03168152602081019190915260400160002054919063ffffffff610d2d16565b610aec565b5060019392505050565b61057d6109fe565b60055461010090046001600160a01b039081169116146105d2576040805162461bcd60e51b81526020600482018190526024820152600080516020610fdd833981519152604482015290519081900360640190fd5b61042b8282610dc4565b60055460ff1690565b60006104d96105f26109fe565b8461056685600160006106036109fe565b6001600160a01b03908116825260208083019390935260409182016000908120918c16815292529020549063ffffffff61099d16565b6001600160a01b031660009081526020819052604090205490565b61065c6109fe565b60055461010090046001600160a01b039081169116146106b1576040805162461bcd60e51b81526020600482018190526024820152600080516020610fdd833981519152604482015290519081900360640190fd5b60055460405160009161010090046001600160a01b0316907f8be0079c531659141344cd1fd0a4f28419497f9722a3daafe3b4186f6b6457e0908390a360058054610100600160a81b0319169055565b60055461010090046001600160a01b031690565b60048054604080516020601f60026000196101006001881615020190951694909404938401819004810282018101909252828152606093909290918301828280156104bb5780601f10610490576101008083540402835291602001916104bb565b60006104d96107836109fe565b846105668560405180606001604052806025815260200161108760259139600160006107ad6109fe565b6001600160a01b03908116825260208083019390935260409182016000908120918d1681529252902054919063ffffffff610d2d16565b60006104d96107f16109fe565b8484610bd8565b6108006109fe565b60055461010090046001600160a01b03908116911614610855576040805162461bcd60e51b81526020600482018190526024820152600080516020610fdd833981519152604482015290519081900360640190fd5b610866610860610701565b82610dc4565b50565b6001600160a01b03918216600090815260016020908152604080832093909416825291909152205490565b61089c6109fe565b60055461010090046001600160a01b039081169116146108f1576040805162461bcd60e51b81526020600482018190526024820152600080516020610fdd833981519152604482015290519081900360640190fd5b6001600160a01b0381166109365760405162461bcd60e51b8152600401808060200182810382526026815260200180610f476026913960400191505060405180910390fd5b6005546040516001600160a01b0380841692610100900416907f8be0079c531659141344cd1fd0a4f28419497f9722a3daafe3b4186f6b6457e090600090a3600580546001600160a01b0390921661010002610100600160a81b0319909216919091179055565b6000828201838110156109f7576040805162461bcd60e51b815260206004820152601b60248201527f536166654d6174683a206164646974696f6e206f766572666c6f770000000000604482015290519081900360640190fd5b9392505050565b3390565b6001600160a01b038216610a5d576040805162461bcd60e51b815260206004820152601f60248201527f45524332303a206d696e7420746f20746865207a65726f206164647265737300604482015290519081900360640190fd5b610a6960008383610eba565b600254610a7c908263ffffffff61099d16565b6002556001600160a01b038216600090815260208190526040902054610aa8908263ffffffff61099d16565b6001600160a01b038316600081815260208181526040808320949094558351858152935192939192600080516020610ffd8339815191529281900390910190a35050565b6001600160a01b038316610b315760405162461bcd60e51b81526004018080602001828103825260248152602001806110636024913960400191505060405180910390fd5b6001600160a01b038216610b765760405162461bcd60e51b8152600401808060200182810382526022815260200180610f6d6022913960400191505060405180910390fd5b6001600160a01b03808416600081815260016020908152604080832094871680845294825291829020859055815185815291517f8c5be1e5ebec7d5bd14f71427d1e84f3dd0314c0f7b2291e5b200ac8c7c3b9259281900390910190a3505050565b6001600160a01b038316610c1d5760405162461bcd60e51b815260040180806020018281038252602581526020018061103e6025913960400191505060405180910390fd5b6001600160a01b038216610c625760405162461bcd60e51b8152600401808060200182810382526023815260200180610f026023913960400191505060405180910390fd5b610c6d838383610eba565b610cb081604051806060016040528060268152602001610f8f602691396001600160a01b038616600090815260208190526040902054919063ffffffff610d2d16565b6001600160a01b038085166000908152602081905260408082209390935590841681522054610ce5908263ffffffff61099d16565b6001600160a01b03808416600081815260208181526040918290209490945580518581529051919392871692600080516020610ffd83398151915292918290030190a3505050565b60008184841115610dbc5760405162461bcd60e51b81526004018080602001828103825283818151815260200191508051906020019080838360005b83811015610d81578181015183820152602001610d69565b50505050905090810190601f168015610dae5780820380516001836020036101000a031916815260200191505b509250505060405180910390fd5b505050900390565b6001600160a01b038216610e095760405162461bcd60e51b815260040180806020018281038252602181526020018061101d6021913960400191505060405180910390fd5b610e1582600083610eba565b610e5881604051806060016040528060228152602001610f25602291396001600160a01b038516600090815260208190526040902054919063ffffffff610d2d16565b6001600160a01b038316600090815260208190526040902055600254610e84908263ffffffff610ebf16565b6002556040805182815290516000916001600160a01b03851691600080516020610ffd8339815191529181900360200190a35050565b505050565b60006109f783836040518060400160405280601e81526020017f536166654d6174683a207375627472616374696f6e206f766572666c6f770000815250610d2d56fe45524332303a207472616e7366657220746f20746865207a65726f206164647265737345524332303a206275726e20616d6f756e7420657863656564732062616c616e63654f776e61626c653a206e6577206f776e657220697320746865207a65726f206164647265737345524332303a20617070726f766520746f20746865207a65726f206164647265737345524332303a207472616e7366657220616d6f756e7420657863656564732062616c616e636545524332303a207472616e7366657220616d6f756e74206578636565647320616c6c6f77616e63654f776e61626c653a2063616c6c6572206973206e6f7420746865206f776e6572ddf252ad1be2c89b69c2b068fc378daa952ba7f163c4a11628f55a4df523b3ef45524332303a206275726e2066726f6d20746865207a65726f206164647265737345524332303a207472616e736665722066726f6d20746865207a65726f206164647265737345524332303a20617070726f76652066726f6d20746865207a65726f206164647265737345524332303a2064656372656173656420616c6c6f77616e63652062656c6f77207a65726fa2646970667358221220d275da316930a54fd35fe5145df11f1c1da2e2aecbab43cb65ca432a990c4ab664736f6c634300060b0033",
  "immutableReferences": {},
  "source": "//SPDX-License-Identifier: MIT\npragma solidity >=0.5.0 <0.7.0;\nimport \"@openzeppelin/contracts/access/Ownable.sol\";\n// import \"@openzeppelin/contracts/token/ERC20/ERC20Pausable.sol\";\nimport \"@openzeppelin/contracts/token/ERC20/ERC20.sol\";\n\ncontract DuneSpice is ERC20, Ownable {\n    constructor(uint256 initialSupply) public ERC20(\"DuneSpice\", \"DSP\") {\n        _mint(msg.sender, initialSupply);\n        _setupDecimals(1);\n    }\n\n    /*\n    function Pause() external onlyOwner {\n        if (!paused()) _pause();\n    }\n\n    function UnPause() external onlyOwner {\n        if (paused()) _unpause();\n    }\n*/\n    function Burn(uint256 _amount) external onlyOwner {\n        _burn(owner(), _amount);\n    }\n\n    function BurnFrom(address _address, uint256 _amount) external onlyOwner {\n        _burn(_address, _amount);\n    }\n\n    function GiveNewTokens(address _toAddress, uint256 _amountCreating)\n        external\n        onlyOwner\n    {\n        _mint(_toAddress, _amountCreating);\n    }\n}\n",
  "sourcePath": "/Users/renaatmeeuws/Dev JS/Ethereum/DuneSpice/Contract/contracts/DuneSpice.sol",
  "compiler": {
    "name": "solc",
    "version": "0.6.11+commit.5ef660b1.Emscripten.clang"
  },
  "schemaVersion": "3.2.2",
  "updatedAt": "2020-08-01T13:20:30.140Z",
  "networkType": "ethereum",
  "devdoc": {
    "kind": "dev",
    "methods": {
      "allowance(address,address)": {
        "details": "See {IERC20-allowance}."
      },
      "approve(address,uint256)": {
        "details": "See {IERC20-approve}. Requirements: - `spender` cannot be the zero address."
      },
      "balanceOf(address)": {
        "details": "See {IERC20-balanceOf}."
      },
      "decimals()": {
        "details": "Returns the number of decimals used to get its user representation. For example, if `decimals` equals `2`, a balance of `505` tokens should be displayed to a user as `5,05` (`505 / 10 ** 2`). Tokens usually opt for a value of 18, imitating the relationship between Ether and Wei. This is the value {ERC20} uses, unless {_setupDecimals} is called. NOTE: This information is only used for _display_ purposes: it in no way affects any of the arithmetic of the contract, including {IERC20-balanceOf} and {IERC20-transfer}."
      },
      "decreaseAllowance(address,uint256)": {
        "details": "Atomically decreases the allowance granted to `spender` by the caller. This is an alternative to {approve} that can be used as a mitigation for problems described in {IERC20-approve}. Emits an {Approval} event indicating the updated allowance. Requirements: - `spender` cannot be the zero address. - `spender` must have allowance for the caller of at least `subtractedValue`."
      },
      "increaseAllowance(address,uint256)": {
        "details": "Atomically increases the allowance granted to `spender` by the caller. This is an alternative to {approve} that can be used as a mitigation for problems described in {IERC20-approve}. Emits an {Approval} event indicating the updated allowance. Requirements: - `spender` cannot be the zero address."
      },
      "name()": {
        "details": "Returns the name of the token."
      },
      "owner()": {
        "details": "Returns the address of the current owner."
      },
      "renounceOwnership()": {
        "details": "Leaves the contract without owner. It will not be possible to call `onlyOwner` functions anymore. Can only be called by the current owner. NOTE: Renouncing ownership will leave the contract without an owner, thereby removing any functionality that is only available to the owner."
      },
      "symbol()": {
        "details": "Returns the symbol of the token, usually a shorter version of the name."
      },
      "totalSupply()": {
        "details": "See {IERC20-totalSupply}."
      },
      "transfer(address,uint256)": {
        "details": "See {IERC20-transfer}. Requirements: - `recipient` cannot be the zero address. - the caller must have a balance of at least `amount`."
      },
      "transferFrom(address,address,uint256)": {
        "details": "See {IERC20-transferFrom}. Emits an {Approval} event indicating the updated allowance. This is not required by the EIP. See the note at the beginning of {ERC20}; Requirements: - `sender` and `recipient` cannot be the zero address. - `sender` must have a balance of at least `amount`. - the caller must have allowance for ``sender``'s tokens of at least `amount`."
      },
      "transferOwnership(address)": {
        "details": "Transfers ownership of the contract to a new account (`newOwner`). Can only be called by the current owner."
      }
    },
    "version": 1
  },
  "userdoc": {
    "kind": "user",
    "methods": {},
    "version": 1
  }
}