{
  "contractName": "Harvestering",
  "abi": [
    {
      "anonymous": false,
      "inputs": [
        {
          "indexed": true,
          "internalType": "address",
          "name": "previousOwner",
          "type": "address"
        },
        {
          "indexed": true,
          "internalType": "address",
          "name": "newOwner",
          "type": "address"
        }
      ],
      "name": "OwnershipTransferred",
      "type": "event"
    },
    {
      "anonymous": false,
      "inputs": [
        {
          "indexed": false,
          "internalType": "address",
          "name": "account",
          "type": "address"
        }
      ],
      "name": "Paused",
      "type": "event"
    },
    {
      "anonymous": false,
      "inputs": [
        {
          "indexed": false,
          "internalType": "address",
          "name": "account",
          "type": "address"
        }
      ],
      "name": "Unpaused",
      "type": "event"
    },
    {
      "inputs": [
        {
          "internalType": "uint256",
          "name": "",
          "type": "uint256"
        }
      ],
      "name": "Harvesters",
      "outputs": [
        {
          "internalType": "uint8",
          "name": "Damage",
          "type": "uint8"
        },
        {
          "internalType": "uint8",
          "name": "Load",
          "type": "uint8"
        },
        {
          "internalType": "uint8",
          "name": "Capacity",
          "type": "uint8"
        }
      ],
      "stateMutability": "view",
      "type": "function",
      "constant": true
    },
    {
      "inputs": [],
      "name": "Price",
      "outputs": [
        {
          "internalType": "uint256",
          "name": "",
          "type": "uint256"
        }
      ],
      "stateMutability": "view",
      "type": "function",
      "constant": true
    },
    {
      "inputs": [],
      "name": "amountOfHarvesters",
      "outputs": [
        {
          "internalType": "uint256",
          "name": "",
          "type": "uint256"
        }
      ],
      "stateMutability": "view",
      "type": "function",
      "constant": true
    },
    {
      "inputs": [],
      "name": "buyHarvester",
      "outputs": [],
      "stateMutability": "payable",
      "type": "function",
      "payable": true
    },
    {
      "inputs": [
        {
          "internalType": "uint256",
          "name": "",
          "type": "uint256"
        }
      ],
      "name": "harvest",
      "outputs": [
        {
          "internalType": "uint256",
          "name": "",
          "type": "uint256"
        }
      ],
      "stateMutability": "view",
      "type": "function",
      "constant": true
    },
    {
      "inputs": [
        {
          "internalType": "uint256",
          "name": "",
          "type": "uint256"
        }
      ],
      "name": "harvesterToOwner",
      "outputs": [
        {
          "internalType": "address",
          "name": "",
          "type": "address"
        }
      ],
      "stateMutability": "view",
      "type": "function",
      "constant": true
    },
    {
      "inputs": [
        {
          "internalType": "uint256",
          "name": "",
          "type": "uint256"
        }
      ],
      "name": "isHarvesting",
      "outputs": [
        {
          "internalType": "bool",
          "name": "",
          "type": "bool"
        }
      ],
      "stateMutability": "view",
      "type": "function",
      "constant": true
    },
    {
      "inputs": [],
      "name": "owner",
      "outputs": [
        {
          "internalType": "address",
          "name": "",
          "type": "address"
        }
      ],
      "stateMutability": "view",
      "type": "function",
      "constant": true
    },
    {
      "inputs": [
        {
          "internalType": "address",
          "name": "",
          "type": "address"
        }
      ],
      "name": "ownerHarvesterCount",
      "outputs": [
        {
          "internalType": "uint256",
          "name": "",
          "type": "uint256"
        }
      ],
      "stateMutability": "view",
      "type": "function",
      "constant": true
    },
    {
      "inputs": [],
      "name": "paused",
      "outputs": [
        {
          "internalType": "bool",
          "name": "",
          "type": "bool"
        }
      ],
      "stateMutability": "view",
      "type": "function",
      "constant": true
    },
    {
      "inputs": [],
      "name": "renounceOwnership",
      "outputs": [],
      "stateMutability": "nonpayable",
      "type": "function"
    },
    {
      "inputs": [],
      "name": "reward",
      "outputs": [
        {
          "internalType": "uint8",
          "name": "",
          "type": "uint8"
        }
      ],
      "stateMutability": "view",
      "type": "function",
      "constant": true
    },
    {
      "inputs": [
        {
          "internalType": "uint256",
          "name": "_price",
          "type": "uint256"
        }
      ],
      "name": "setPrice",
      "outputs": [],
      "stateMutability": "nonpayable",
      "type": "function"
    },
    {
      "inputs": [
        {
          "internalType": "uint256",
          "name": "",
          "type": "uint256"
        }
      ],
      "name": "startAtBlock",
      "outputs": [
        {
          "internalType": "uint256",
          "name": "",
          "type": "uint256"
        }
      ],
      "stateMutability": "view",
      "type": "function",
      "constant": true
    },
    {
      "inputs": [
        {
          "internalType": "address",
          "name": "newOwner",
          "type": "address"
        }
      ],
      "name": "transferOwnership",
      "outputs": [],
      "stateMutability": "nonpayable",
      "type": "function"
    },
    {
      "inputs": [
        {
          "internalType": "uint256",
          "name": "_harvesterId",
          "type": "uint256"
        }
      ],
      "name": "startHarvesting",
      "outputs": [],
      "stateMutability": "nonpayable",
      "type": "function"
    },
    {
      "inputs": [
        {
          "internalType": "uint256",
          "name": "_harvesterId",
          "type": "uint256"
        }
      ],
      "name": "stopHarvesting",
      "outputs": [],
      "stateMutability": "nonpayable",
      "type": "function"
    },
    {
      "inputs": [
        {
          "internalType": "uint256",
          "name": "_harvesterId",
          "type": "uint256"
        }
      ],
      "name": "collectHarvest",
      "outputs": [],
      "stateMutability": "nonpayable",
      "type": "function"
    }
  ],
  "bytecode": "0x60806040526002600560006101000a81548160ff021916908360ff16021790555034801561002c57600080fd5b50600061003d61010960201b60201c565b9050806000806101000a81548173ffffffffffffffffffffffffffffffffffffffff021916908373ffffffffffffffffffffffffffffffffffffffff1602179055508073ffffffffffffffffffffffffffffffffffffffff16600073ffffffffffffffffffffffffffffffffffffffff167f8be0079c531659141344cd1fd0a4f28419497f9722a3daafe3b4186f6b6457e060405160405180910390a35060008060146101000a81548160ff021916908315150217905550670de0b6b3a7640000600181905550610111565b600033905090565b6116fb806101206000396000f3fe6080604052600436106101095760003560e01c80638da5cb5b11610095578063b1f0951b11610064578063b1f0951b14610428578063cdbf9ebd146104a3578063cf9cf371146104de578063ddc6326214610519578063f2fde38b1461056857610109565b80638da5cb5b1461034057806391b7f5ed146103975780639dfde201146103d2578063a99398a0146103fd57610109565b80635c975abb116100dc5780635c975abb146101d7578063666994d314610206578063715018a61461026b578063866d84be146102825780638b986d18146102d157610109565b8063228cb7331461010e578063440ab5611461013f5780634a86cc58146101495780634bea67c414610184575b600080fd5b34801561011a57600080fd5b506101236105b9565b604051808260ff1660ff16815260200191505060405180910390f35b6101476105cc565b005b34801561015557600080fd5b506101826004803603602081101561016c57600080fd5b810190808035906020019092919050505061086f565b005b34801561019057600080fd5b506101bd600480360360208110156101a757600080fd5b8101908080359060200190929190505050610b30565b604051808215151515815260200191505060405180910390f35b3480156101e357600080fd5b506101ec610b50565b604051808215151515815260200191505060405180910390f35b34801561021257600080fd5b506102556004803603602081101561022957600080fd5b81019080803573ffffffffffffffffffffffffffffffffffffffff169060200190929190505050610b66565b6040518082815260200191505060405180910390f35b34801561027757600080fd5b50610280610b7e565b005b34801561028e57600080fd5b506102bb600480360360208110156102a557600080fd5b8101908080359060200190929190505050610d06565b6040518082815260200191505060405180910390f35b3480156102dd57600080fd5b5061030a600480360360208110156102f457600080fd5b8101908080359060200190929190505050610d1e565b604051808460ff1660ff1681526020018360ff1660ff1681526020018260ff1660ff168152602001935050505060405180910390f35b34801561034c57600080fd5b50610355610d78565b604051808273ffffffffffffffffffffffffffffffffffffffff1673ffffffffffffffffffffffffffffffffffffffff16815260200191505060405180910390f35b3480156103a357600080fd5b506103d0600480360360208110156103ba57600080fd5b8101908080359060200190929190505050610da1565b005b3480156103de57600080fd5b506103e7610ef7565b6040518082815260200191505060405180910390f35b34801561040957600080fd5b50610412610efd565b6040518082815260200191505060405180910390f35b34801561043457600080fd5b506104616004803603602081101561044b57600080fd5b8101908080359060200190929190505050610f0a565b604051808273ffffffffffffffffffffffffffffffffffffffff1673ffffffffffffffffffffffffffffffffffffffff16815260200191505060405180910390f35b3480156104af57600080fd5b506104dc600480360360208110156104c657600080fd5b8101908080359060200190929190505050610f3d565b005b3480156104ea57600080fd5b506105176004803603602081101561050157600080fd5b8101908080359060200190929190505050611099565b005b34801561052557600080fd5b506105526004803603602081101561053c57600080fd5b8101908080359060200190929190505050611239565b6040518082815260200191505060405180910390f35b34801561057457600080fd5b506105b76004803603602081101561058b57600080fd5b81019080803573ffffffffffffffffffffffffffffffffffffffff169060200190929190505050611251565b005b600560009054906101000a900460ff1681565b600060149054906101000a900460ff161561064f576040517f08c379a00000000000000000000000000000000000000000000000000000000081526004018080602001828103825260108152602001807f5061757361626c653a207061757365640000000000000000000000000000000081525060200191505060405180910390fd5b6001543410156106c7576040517f08c379a00000000000000000000000000000000000000000000000000000000081526004018080602001828103825260208152602001807f507269636520697320686967686572207468617420616d6f756e742073656e6481525060200191505060405180910390fd5b6000600280549050905060026040518060600160405280600060ff168152602001600060ff168152602001600a60ff168152509080600181540180825580915050600190039060005260206000200160009091909190915060008201518160000160006101000a81548160ff021916908360ff16021790555060208201518160000160016101000a81548160ff021916908360ff16021790555060408201518160000160026101000a81548160ff021916908360ff1602179055505050336003600083815260200190815260200160002060006101000a81548173ffffffffffffffffffffffffffffffffffffffff021916908373ffffffffffffffffffffffffffffffffffffffff1602179055506108296001600460003373ffffffffffffffffffffffffffffffffffffffff1673ffffffffffffffffffffffffffffffffffffffff1681526020019081526020016000205461145e90919063ffffffff16565b600460003373ffffffffffffffffffffffffffffffffffffffff1673ffffffffffffffffffffffffffffffffffffffff1681526020019081526020016000208190555050565b600060149054906101000a900460ff16156108f2576040517f08c379a00000000000000000000000000000000000000000000000000000000081526004018080602001828103825260108152602001807f5061757361626c653a207061757365640000000000000000000000000000000081525060200191505060405180910390fd5b806003600082815260200190815260200160002060009054906101000a900473ffffffffffffffffffffffffffffffffffffffff1673ffffffffffffffffffffffffffffffffffffffff163373ffffffffffffffffffffffffffffffffffffffff16146109c7576040517f08c379a000000000000000000000000000000000000000000000000000000000815260040180806020018281038252601e8152602001807f4e6f7420746865206f776e6572206f662074686520686172766573746572000081525060200191505060405180910390fd5b600115156006600084815260200190815260200160002060009054906101000a900460ff16151514610a61576040517f08c379a00000000000000000000000000000000000000000000000000000000081526004018080602001828103825260198152602001807f48617276657374657220776173206e6f742072756e6e696e670000000000000081525060200191505060405180910390fd5b60006006600084815260200190815260200160002060006101000a81548160ff0219169083151502179055506000610ac86001610aba6007600087815260200190815260200160002054436114e690919063ffffffff16565b6114e690919063ffffffff16565b9050610b14600560009054906101000a900460ff1660ff16610b0683600860008881526020019081526020016000205461145e90919063ffffffff16565b61153090919063ffffffff16565b6008600085815260200190815260200160002081905550505050565b60066020528060005260406000206000915054906101000a900460ff1681565b60008060149054906101000a900460ff16905090565b60046020528060005260406000206000915090505481565b610b866115b6565b73ffffffffffffffffffffffffffffffffffffffff166000809054906101000a900473ffffffffffffffffffffffffffffffffffffffff1673ffffffffffffffffffffffffffffffffffffffff1614610c47576040517f08c379a00000000000000000000000000000000000000000000000000000000081526004018080602001828103825260208152602001807f4f776e61626c653a2063616c6c6572206973206e6f7420746865206f776e657281525060200191505060405180910390fd5b600073ffffffffffffffffffffffffffffffffffffffff166000809054906101000a900473ffffffffffffffffffffffffffffffffffffffff1673ffffffffffffffffffffffffffffffffffffffff167f8be0079c531659141344cd1fd0a4f28419497f9722a3daafe3b4186f6b6457e060405160405180910390a360008060006101000a81548173ffffffffffffffffffffffffffffffffffffffff021916908373ffffffffffffffffffffffffffffffffffffffff160217905550565b60076020528060005260406000206000915090505481565b60028181548110610d2b57fe5b906000526020600020016000915090508060000160009054906101000a900460ff16908060000160019054906101000a900460ff16908060000160029054906101000a900460ff16905083565b60008060009054906101000a900473ffffffffffffffffffffffffffffffffffffffff16905090565b610da96115b6565b73ffffffffffffffffffffffffffffffffffffffff166000809054906101000a900473ffffffffffffffffffffffffffffffffffffffff1673ffffffffffffffffffffffffffffffffffffffff1614610e6a576040517f08c379a00000000000000000000000000000000000000000000000000000000081526004018080602001828103825260208152602001807f4f776e61626c653a2063616c6c6572206973206e6f7420746865206f776e657281525060200191505060405180910390fd5b600060149054906101000a900460ff1615610eed576040517f08c379a00000000000000000000000000000000000000000000000000000000081526004018080602001828103825260108152602001807f5061757361626c653a207061757365640000000000000000000000000000000081525060200191505060405180910390fd5b8060018190555050565b60015481565b6000600280549050905090565b60036020528060005260406000206000915054906101000a900473ffffffffffffffffffffffffffffffffffffffff1681565b600060149054906101000a900460ff1615610fc0576040517f08c379a00000000000000000000000000000000000000000000000000000000081526004018080602001828103825260108152602001807f5061757361626c653a207061757365640000000000000000000000000000000081525060200191505060405180910390fd5b806003600082815260200190815260200160002060009054906101000a900473ffffffffffffffffffffffffffffffffffffffff1673ffffffffffffffffffffffffffffffffffffffff163373ffffffffffffffffffffffffffffffffffffffff1614611095576040517f08c379a000000000000000000000000000000000000000000000000000000000815260040180806020018281038252601e8152602001807f4e6f7420746865206f776e6572206f662074686520686172766573746572000081525060200191505060405180910390fd5b5050565b600060149054906101000a900460ff161561111c576040517f08c379a00000000000000000000000000000000000000000000000000000000081526004018080602001828103825260108152602001807f5061757361626c653a207061757365640000000000000000000000000000000081525060200191505060405180910390fd5b806003600082815260200190815260200160002060009054906101000a900473ffffffffffffffffffffffffffffffffffffffff1673ffffffffffffffffffffffffffffffffffffffff163373ffffffffffffffffffffffffffffffffffffffff16146111f1576040517f08c379a000000000000000000000000000000000000000000000000000000000815260040180806020018281038252601e8152602001807f4e6f7420746865206f776e6572206f662074686520686172766573746572000081525060200191505060405180910390fd5b60016006600084815260200190815260200160002060006101000a81548160ff0219169083151502179055504360076000848152602001908152602001600020819055505050565b60086020528060005260406000206000915090505481565b6112596115b6565b73ffffffffffffffffffffffffffffffffffffffff166000809054906101000a900473ffffffffffffffffffffffffffffffffffffffff1673ffffffffffffffffffffffffffffffffffffffff161461131a576040517f08c379a00000000000000000000000000000000000000000000000000000000081526004018080602001828103825260208152602001807f4f776e61626c653a2063616c6c6572206973206e6f7420746865206f776e657281525060200191505060405180910390fd5b600073ffffffffffffffffffffffffffffffffffffffff168173ffffffffffffffffffffffffffffffffffffffff1614156113a0576040517f08c379a000000000000000000000000000000000000000000000000000000000815260040180806020018281038252602681526020018061167f6026913960400191505060405180910390fd5b8073ffffffffffffffffffffffffffffffffffffffff166000809054906101000a900473ffffffffffffffffffffffffffffffffffffffff1673ffffffffffffffffffffffffffffffffffffffff167f8be0079c531659141344cd1fd0a4f28419497f9722a3daafe3b4186f6b6457e060405160405180910390a3806000806101000a81548173ffffffffffffffffffffffffffffffffffffffff021916908373ffffffffffffffffffffffffffffffffffffffff16021790555050565b6000808284019050838110156114dc576040517f08c379a000000000000000000000000000000000000000000000000000000000815260040180806020018281038252601b8152602001807f536166654d6174683a206164646974696f6e206f766572666c6f77000000000081525060200191505060405180910390fd5b8091505092915050565b600061152883836040518060400160405280601e81526020017f536166654d6174683a207375627472616374696f6e206f766572666c6f7700008152506115be565b905092915050565b60008083141561154357600090506115b0565b600082840290508284828161155457fe5b04146115ab576040517f08c379a00000000000000000000000000000000000000000000000000000000081526004018080602001828103825260218152602001806116a56021913960400191505060405180910390fd5b809150505b92915050565b600033905090565b600083831115829061166b576040517f08c379a00000000000000000000000000000000000000000000000000000000081526004018080602001828103825283818151815260200191508051906020019080838360005b83811015611630578082015181840152602081019050611615565b50505050905090810190601f16801561165d5780820380516001836020036101000a031916815260200191505b509250505060405180910390fd5b506000838503905080915050939250505056fe4f776e61626c653a206e6577206f776e657220697320746865207a65726f2061646472657373536166654d6174683a206d756c7469706c69636174696f6e206f766572666c6f77a2646970667358221220162afa78fb4dfd05b5402eba1d70f405d61c5651099b196b800c2ef6fedbbafa64736f6c634300060b0033",
  "immutableReferences": {},
  "source": "//SPDX-License-Identifier: MIT\npragma solidity >=0.5.0 <0.7.0;\nimport \"@openzeppelin/contracts/math/SafeMath.sol\";\n\nimport \"./HarvesterFactory.sol\";\nimport \"./DuneSpice.sol\";\n\ncontract Harvestering is HarvesterFactory {\n    using SafeMath for uint256;\n\n    uint8 public reward = 2;\n    mapping(uint256 => bool) public isHarvesting;\n    mapping(uint256 => uint256) public startAtBlock;\n    mapping(uint256 => uint256) public harvest;\n\n    function startHarvesting(uint256 _harvesterId)\n        external\n        whenNotPaused()\n        isHarvesterOwner(_harvesterId)\n    {\n        isHarvesting[_harvesterId] = true;\n        startAtBlock[_harvesterId] = block.number;\n    }\n\n    // stop harvesting and calculate the harvest = blocks * reward\n    function stopHarvesting(uint256 _harvesterId)\n        external\n        whenNotPaused()\n        isHarvesterOwner(_harvesterId)\n    {\n        require(\n            isHarvesting[_harvesterId] == true,\n            \"Harvester was not running\"\n        );\n        // stop now, before calculating the reward as reentry guard\n        isHarvesting[_harvesterId] = false;\n\n        uint256 blocksHarvested = block\n            .number\n            .sub(startAtBlock[_harvesterId])\n            .sub(1);\n        harvest[_harvesterId] = harvest[_harvesterId].add(blocksHarvested).mul(\n            reward\n        );\n    }\n\n    // send reward as DuneSpiceTokens\n    function collectHarvest(uint256 _harvesterId)\n        external\n        whenNotPaused()\n        isHarvesterOwner(_harvesterId)\n    {\n        // transfer(harvesterToOwner[_harvesterId], harvest[_harvesterId]);\n    }\n}\n",
  "sourcePath": "/Users/renaatmeeuws/Dev/Ethereum/DuneSpice/Contract/contracts/Harvesting.sol",
  "compiler": {
    "name": "solc",
    "version": "0.6.11+commit.5ef660b1.Emscripten.clang"
  },
  "schemaVersion": "3.2.2",
  "updatedAt": "2020-07-28T08:19:16.523Z",
  "networkType": "ethereum",
  "devdoc": {
    "kind": "dev",
    "methods": {
      "owner()": {
        "details": "Returns the address of the current owner."
      },
      "paused()": {
        "details": "Returns true if the contract is paused, and false otherwise."
      },
      "renounceOwnership()": {
        "details": "Leaves the contract without owner. It will not be possible to call `onlyOwner` functions anymore. Can only be called by the current owner. NOTE: Renouncing ownership will leave the contract without an owner, thereby removing any functionality that is only available to the owner."
      },
      "transferOwnership(address)": {
        "details": "Transfers ownership of the contract to a new account (`newOwner`). Can only be called by the current owner."
      }
    },
    "version": 1
  },
  "userdoc": {
    "kind": "user",
    "methods": {},
    "version": 1
  }
}