{
  "contractName": "Harvestering",
  "abi": [
    {
      "anonymous": false,
      "inputs": [
        {
          "indexed": true,
          "internalType": "address",
          "name": "previousOwner",
          "type": "address"
        },
        {
          "indexed": true,
          "internalType": "address",
          "name": "newOwner",
          "type": "address"
        }
      ],
      "name": "OwnershipTransferred",
      "type": "event"
    },
    {
      "anonymous": false,
      "inputs": [
        {
          "indexed": false,
          "internalType": "address",
          "name": "account",
          "type": "address"
        }
      ],
      "name": "Paused",
      "type": "event"
    },
    {
      "anonymous": false,
      "inputs": [
        {
          "indexed": false,
          "internalType": "address",
          "name": "account",
          "type": "address"
        }
      ],
      "name": "Unpaused",
      "type": "event"
    },
    {
      "inputs": [],
      "name": "Price",
      "outputs": [
        {
          "internalType": "uint256",
          "name": "",
          "type": "uint256"
        }
      ],
      "stateMutability": "view",
      "type": "function",
      "constant": true
    },
    {
      "inputs": [],
      "name": "buyHarvester",
      "outputs": [],
      "stateMutability": "payable",
      "type": "function",
      "payable": true
    },
    {
      "inputs": [
        {
          "internalType": "uint256",
          "name": "",
          "type": "uint256"
        }
      ],
      "name": "harvest",
      "outputs": [
        {
          "internalType": "uint256",
          "name": "",
          "type": "uint256"
        }
      ],
      "stateMutability": "view",
      "type": "function",
      "constant": true
    },
    {
      "inputs": [
        {
          "internalType": "uint256",
          "name": "",
          "type": "uint256"
        }
      ],
      "name": "harvesterToOwner",
      "outputs": [
        {
          "internalType": "address",
          "name": "",
          "type": "address"
        }
      ],
      "stateMutability": "view",
      "type": "function",
      "constant": true
    },
    {
      "inputs": [
        {
          "internalType": "uint256",
          "name": "",
          "type": "uint256"
        }
      ],
      "name": "isHarvesting",
      "outputs": [
        {
          "internalType": "bool",
          "name": "",
          "type": "bool"
        }
      ],
      "stateMutability": "view",
      "type": "function",
      "constant": true
    },
    {
      "inputs": [],
      "name": "lastID",
      "outputs": [
        {
          "internalType": "uint256",
          "name": "",
          "type": "uint256"
        }
      ],
      "stateMutability": "view",
      "type": "function",
      "constant": true
    },
    {
      "inputs": [],
      "name": "owner",
      "outputs": [
        {
          "internalType": "address",
          "name": "",
          "type": "address"
        }
      ],
      "stateMutability": "view",
      "type": "function",
      "constant": true
    },
    {
      "inputs": [
        {
          "internalType": "address",
          "name": "",
          "type": "address"
        }
      ],
      "name": "ownerHarvesterCount",
      "outputs": [
        {
          "internalType": "uint256",
          "name": "",
          "type": "uint256"
        }
      ],
      "stateMutability": "view",
      "type": "function",
      "constant": true
    },
    {
      "inputs": [],
      "name": "paused",
      "outputs": [
        {
          "internalType": "bool",
          "name": "",
          "type": "bool"
        }
      ],
      "stateMutability": "view",
      "type": "function",
      "constant": true
    },
    {
      "inputs": [],
      "name": "renounceOwnership",
      "outputs": [],
      "stateMutability": "nonpayable",
      "type": "function"
    },
    {
      "inputs": [],
      "name": "reward",
      "outputs": [
        {
          "internalType": "uint8",
          "name": "",
          "type": "uint8"
        }
      ],
      "stateMutability": "view",
      "type": "function",
      "constant": true
    },
    {
      "inputs": [
        {
          "internalType": "uint256",
          "name": "_price",
          "type": "uint256"
        }
      ],
      "name": "setPrice",
      "outputs": [],
      "stateMutability": "nonpayable",
      "type": "function"
    },
    {
      "inputs": [
        {
          "internalType": "uint256",
          "name": "",
          "type": "uint256"
        }
      ],
      "name": "startAtBlock",
      "outputs": [
        {
          "internalType": "uint256",
          "name": "",
          "type": "uint256"
        }
      ],
      "stateMutability": "view",
      "type": "function",
      "constant": true
    },
    {
      "inputs": [
        {
          "internalType": "address",
          "name": "newOwner",
          "type": "address"
        }
      ],
      "name": "transferOwnership",
      "outputs": [],
      "stateMutability": "nonpayable",
      "type": "function"
    },
    {
      "inputs": [
        {
          "internalType": "uint256",
          "name": "_harvesterId",
          "type": "uint256"
        }
      ],
      "name": "startHarvesting",
      "outputs": [],
      "stateMutability": "nonpayable",
      "type": "function"
    },
    {
      "inputs": [
        {
          "internalType": "uint256",
          "name": "_harvesterId",
          "type": "uint256"
        }
      ],
      "name": "stopHarvesting",
      "outputs": [],
      "stateMutability": "nonpayable",
      "type": "function"
    },
    {
      "inputs": [
        {
          "internalType": "uint256",
          "name": "_harvesterId",
          "type": "uint256"
        }
      ],
      "name": "collectHarvest",
      "outputs": [],
      "stateMutability": "nonpayable",
      "type": "function"
    }
  ],
  "bytecode": "0x6080604052600060029081556005805460ff1916909117905534801561002457600080fd5b5060006100386001600160e01b036100a016565b600080546001600160a01b0319166001600160a01b0383169081178255604051929350917f8be0079c531659141344cd1fd0a4f28419497f9722a3daafe3b4186f6b6457e0908290a3506000805460ff60a01b19169055670de0b6b3a76400006001556100a4565b3390565b610cf4806100b36000396000f3fe6080604052600436106100de5760003560e01c80638da5cb5b116100855780638da5cb5b1461021957806391b7f5ed1461024a5780639dfde20114610274578063b1f0951b14610289578063cdbf9ebd146102b3578063cf9cf371146102dd578063ddc6326214610307578063e31a9d9214610331578063f2fde38b14610346576100de565b8063228cb733146100e3578063440ab5611461010e5780634a86cc58146101185780634bea67c4146101425780635c975abb14610180578063666994d314610195578063715018a6146101da578063866d84be146101ef575b600080fd5b3480156100ef57600080fd5b506100f8610379565b6040805160ff9092168252519081900360200190f35b610116610382565b005b34801561012457600080fd5b506101166004803603602081101561013b57600080fd5b5035610495565b34801561014e57600080fd5b5061016c6004803603602081101561016557600080fd5b503561063d565b604080519115158252519081900360200190f35b34801561018c57600080fd5b5061016c610652565b3480156101a157600080fd5b506101c8600480360360208110156101b857600080fd5b50356001600160a01b0316610662565b60408051918252519081900360200190f35b3480156101e657600080fd5b50610116610674565b3480156101fb57600080fd5b506101c86004803603602081101561021257600080fd5b5035610716565b34801561022557600080fd5b5061022e610728565b604080516001600160a01b039092168252519081900360200190f35b34801561025657600080fd5b506101166004803603602081101561026d57600080fd5b5035610737565b34801561028057600080fd5b506101c86107e6565b34801561029557600080fd5b5061022e600480360360208110156102ac57600080fd5b50356107ec565b3480156102bf57600080fd5b50610116600480360360208110156102d657600080fd5b5035610807565b3480156102e957600080fd5b506101166004803603602081101561030057600080fd5b50356108b8565b34801561031357600080fd5b506101c86004803603602081101561032a57600080fd5b503561098e565b34801561033d57600080fd5b506101c86109a0565b34801561035257600080fd5b506101166004803603602081101561036957600080fd5b50356001600160a01b03166109a6565b60055460ff1681565b600054600160a01b900460ff16156103d4576040805162461bcd60e51b815260206004820152601060248201526f14185d5cd8589b194e881c185d5cd95960821b604482015290519081900360640190fd5b60015434101561042b576040805162461bcd60e51b815260206004820181905260248201527f507269636520697320686967686572207468617420616d6f756e742073656e64604482015290519081900360640190fd5b60028054600090815260036020526040902080546001600160a01b031916331790555461045f90600163ffffffff610a9e16565b6002553360009081526004602052604090205461048390600163ffffffff610a9e16565b33600090815260046020526040902055565b600054600160a01b900460ff16156104e7576040805162461bcd60e51b815260206004820152601060248201526f14185d5cd8589b194e881c185d5cd95960821b604482015290519081900360640190fd5b60008181526003602052604090205481906001600160a01b03163314610542576040805162461bcd60e51b815260206004820152601e6024820152600080516020610c5e833981519152604482015290519081900360640190fd5b60008281526006602052604090205460ff1615156001146105a6576040805162461bcd60e51b815260206004820152601960248201527848617276657374657220776173206e6f742072756e6e696e6760381b604482015290519081900360640190fd5b6000828152600660209081526040808320805460ff1916905560079091528120546105eb906001906105df90439063ffffffff610b0116565b9063ffffffff610b0116565b6005546000858152600860205260409020549192506106269160ff9091169061061a908463ffffffff610a9e16565b9063ffffffff610b4316565b600093845260086020526040909320929092555050565b60066020526000908152604090205460ff1681565b600054600160a01b900460ff1690565b60046020526000908152604090205481565b61067c610b9c565b6000546001600160a01b039081169116146106cc576040805162461bcd60e51b81526020600482018190526024820152600080516020610c9f833981519152604482015290519081900360640190fd5b600080546040516001600160a01b03909116907f8be0079c531659141344cd1fd0a4f28419497f9722a3daafe3b4186f6b6457e0908390a3600080546001600160a01b0319169055565b60076020526000908152604090205481565b6000546001600160a01b031690565b61073f610b9c565b6000546001600160a01b0390811691161461078f576040805162461bcd60e51b81526020600482018190526024820152600080516020610c9f833981519152604482015290519081900360640190fd5b600054600160a01b900460ff16156107e1576040805162461bcd60e51b815260206004820152601060248201526f14185d5cd8589b194e881c185d5cd95960821b604482015290519081900360640190fd5b600155565b60015481565b6003602052600090815260409020546001600160a01b031681565b600054600160a01b900460ff1615610859576040805162461bcd60e51b815260206004820152601060248201526f14185d5cd8589b194e881c185d5cd95960821b604482015290519081900360640190fd5b60008181526003602052604090205481906001600160a01b031633146108b4576040805162461bcd60e51b815260206004820152601e6024820152600080516020610c5e833981519152604482015290519081900360640190fd5b5050565b600054600160a01b900460ff161561090a576040805162461bcd60e51b815260206004820152601060248201526f14185d5cd8589b194e881c185d5cd95960821b604482015290519081900360640190fd5b60008181526003602052604090205481906001600160a01b03163314610965576040805162461bcd60e51b815260206004820152601e6024820152600080516020610c5e833981519152604482015290519081900360640190fd5b506000908152600660209081526040808320805460ff1916600117905560079091529020439055565b60086020526000908152604090205481565b60025481565b6109ae610b9c565b6000546001600160a01b039081169116146109fe576040805162461bcd60e51b81526020600482018190526024820152600080516020610c9f833981519152604482015290519081900360640190fd5b6001600160a01b038116610a435760405162461bcd60e51b8152600401808060200182810382526026815260200180610c386026913960400191505060405180910390fd5b600080546040516001600160a01b03808516939216917f8be0079c531659141344cd1fd0a4f28419497f9722a3daafe3b4186f6b6457e091a3600080546001600160a01b0319166001600160a01b0392909216919091179055565b600082820183811015610af8576040805162461bcd60e51b815260206004820152601b60248201527f536166654d6174683a206164646974696f6e206f766572666c6f770000000000604482015290519081900360640190fd5b90505b92915050565b6000610af883836040518060400160405280601e81526020017f536166654d6174683a207375627472616374696f6e206f766572666c6f770000815250610ba0565b600082610b5257506000610afb565b82820282848281610b5f57fe5b0414610af85760405162461bcd60e51b8152600401808060200182810382526021815260200180610c7e6021913960400191505060405180910390fd5b3390565b60008184841115610c2f5760405162461bcd60e51b81526004018080602001828103825283818151815260200191508051906020019080838360005b83811015610bf4578181015183820152602001610bdc565b50505050905090810190601f168015610c215780820380516001836020036101000a031916815260200191505b509250505060405180910390fd5b50505090039056fe4f776e61626c653a206e6577206f776e657220697320746865207a65726f20616464726573734e6f7420746865206f776e6572206f6620746865206861727665737465720000536166654d6174683a206d756c7469706c69636174696f6e206f766572666c6f774f776e61626c653a2063616c6c6572206973206e6f7420746865206f776e6572a2646970667358221220b2fd2b952be1df57ff7cc79bf12c91f3b71c4ebb27611888a183d31d0b6732a164736f6c634300060b0033",
  "immutableReferences": {},
  "source": "//SPDX-License-Identifier: MIT\npragma solidity >=0.5.0 <0.7.0;\nimport \"@openzeppelin/contracts/math/SafeMath.sol\";\n\nimport \"./HarvesterFactory.sol\";\nimport \"./DuneSpice.sol\";\n\ncontract Harvestering is HarvesterFactory {\n    using SafeMath for uint256;\n\n    uint8 public reward = 2;\n    mapping(uint256 => bool) public isHarvesting;\n    mapping(uint256 => uint256) public startAtBlock;\n    mapping(uint256 => uint256) public harvest;\n\n    function startHarvesting(uint256 _harvesterId)\n        external\n        whenNotPaused()\n        isHarvesterOwner(_harvesterId)\n    {\n        isHarvesting[_harvesterId] = true;\n        startAtBlock[_harvesterId] = block.number;\n    }\n\n    // stop harvesting and calculate the harvest = blocks * reward\n    function stopHarvesting(uint256 _harvesterId)\n        external\n        whenNotPaused()\n        isHarvesterOwner(_harvesterId)\n    {\n        require(\n            isHarvesting[_harvesterId] == true,\n            \"Harvester was not running\"\n        );\n        // stop now, before calculating the reward as reentry guard\n        isHarvesting[_harvesterId] = false;\n\n        uint256 blocksHarvested = block\n            .number\n            .sub(startAtBlock[_harvesterId])\n            .sub(1);\n        harvest[_harvesterId] = harvest[_harvesterId].add(blocksHarvested).mul(\n            reward\n        );\n    }\n\n    // send reward as DuneSpiceTokens\n    function collectHarvest(uint256 _harvesterId)\n        external\n        whenNotPaused()\n        isHarvesterOwner(_harvesterId)\n    {\n        // transfer(harvesterToOwner[_harvesterId], harvest[_harvesterId]);\n    }\n}\n",
  "sourcePath": "/Users/renaatmeeuws/Dev JS/Ethereum/DuneSpice/Contract/contracts/Harvesting.sol",
  "compiler": {
    "name": "solc",
    "version": "0.6.11+commit.5ef660b1.Emscripten.clang"
  },
  "schemaVersion": "3.2.2",
  "updatedAt": "2020-08-01T13:20:31.051Z",
  "networkType": "ethereum",
  "devdoc": {
    "kind": "dev",
    "methods": {
      "owner()": {
        "details": "Returns the address of the current owner."
      },
      "paused()": {
        "details": "Returns true if the contract is paused, and false otherwise."
      },
      "renounceOwnership()": {
        "details": "Leaves the contract without owner. It will not be possible to call `onlyOwner` functions anymore. Can only be called by the current owner. NOTE: Renouncing ownership will leave the contract without an owner, thereby removing any functionality that is only available to the owner."
      },
      "transferOwnership(address)": {
        "details": "Transfers ownership of the contract to a new account (`newOwner`). Can only be called by the current owner."
      }
    },
    "version": 1
  },
  "userdoc": {
    "kind": "user",
    "methods": {},
    "version": 1
  }
}