{
  "contractName": "HarvesterFactory",
  "abi": [
    {
      "inputs": [],
      "stateMutability": "nonpayable",
      "type": "constructor"
    },
    {
      "anonymous": false,
      "inputs": [
        {
          "indexed": true,
          "internalType": "address",
          "name": "previousOwner",
          "type": "address"
        },
        {
          "indexed": true,
          "internalType": "address",
          "name": "newOwner",
          "type": "address"
        }
      ],
      "name": "OwnershipTransferred",
      "type": "event"
    },
    {
      "anonymous": false,
      "inputs": [
        {
          "indexed": false,
          "internalType": "address",
          "name": "account",
          "type": "address"
        }
      ],
      "name": "Paused",
      "type": "event"
    },
    {
      "anonymous": false,
      "inputs": [
        {
          "indexed": false,
          "internalType": "address",
          "name": "account",
          "type": "address"
        }
      ],
      "name": "Unpaused",
      "type": "event"
    },
    {
      "inputs": [],
      "name": "Price",
      "outputs": [
        {
          "internalType": "uint256",
          "name": "",
          "type": "uint256"
        }
      ],
      "stateMutability": "view",
      "type": "function",
      "constant": true
    },
    {
      "inputs": [
        {
          "internalType": "uint256",
          "name": "",
          "type": "uint256"
        }
      ],
      "name": "harvesterToOwner",
      "outputs": [
        {
          "internalType": "address",
          "name": "",
          "type": "address"
        }
      ],
      "stateMutability": "view",
      "type": "function",
      "constant": true
    },
    {
      "inputs": [],
      "name": "lastID",
      "outputs": [
        {
          "internalType": "uint256",
          "name": "",
          "type": "uint256"
        }
      ],
      "stateMutability": "view",
      "type": "function",
      "constant": true
    },
    {
      "inputs": [],
      "name": "owner",
      "outputs": [
        {
          "internalType": "address",
          "name": "",
          "type": "address"
        }
      ],
      "stateMutability": "view",
      "type": "function",
      "constant": true
    },
    {
      "inputs": [
        {
          "internalType": "address",
          "name": "",
          "type": "address"
        }
      ],
      "name": "ownerHarvesterCount",
      "outputs": [
        {
          "internalType": "uint256",
          "name": "",
          "type": "uint256"
        }
      ],
      "stateMutability": "view",
      "type": "function",
      "constant": true
    },
    {
      "inputs": [],
      "name": "paused",
      "outputs": [
        {
          "internalType": "bool",
          "name": "",
          "type": "bool"
        }
      ],
      "stateMutability": "view",
      "type": "function",
      "constant": true
    },
    {
      "inputs": [],
      "name": "renounceOwnership",
      "outputs": [],
      "stateMutability": "nonpayable",
      "type": "function"
    },
    {
      "inputs": [
        {
          "internalType": "address",
          "name": "newOwner",
          "type": "address"
        }
      ],
      "name": "transferOwnership",
      "outputs": [],
      "stateMutability": "nonpayable",
      "type": "function"
    },
    {
      "inputs": [
        {
          "internalType": "uint256",
          "name": "_price",
          "type": "uint256"
        }
      ],
      "name": "setPrice",
      "outputs": [],
      "stateMutability": "nonpayable",
      "type": "function"
    },
    {
      "inputs": [],
      "name": "buyHarvester",
      "outputs": [],
      "stateMutability": "payable",
      "type": "function",
      "payable": true
    }
  ],
  "bytecode": "0x6080604052600060025534801561001557600080fd5b5060006100296001600160e01b0361009116565b600080546001600160a01b0319166001600160a01b0383169081178255604051929350917f8be0079c531659141344cd1fd0a4f28419497f9722a3daafe3b4186f6b6457e0908290a3506000805460ff60a01b19169055670de0b6b3a7640000600155610095565b3390565b61069a806100a46000396000f3fe6080604052600436106100915760003560e01c806391b7f5ed1161005957806391b7f5ed146101545780639dfde2011461017e578063b1f0951b14610193578063e31a9d92146101bd578063f2fde38b146101d257610091565b8063440ab561146100965780635c975abb146100a0578063666994d3146100c9578063715018a61461010e5780638da5cb5b14610123575b600080fd5b61009e610205565b005b3480156100ac57600080fd5b506100b5610318565b604080519115158252519081900360200190f35b3480156100d557600080fd5b506100fc600480360360208110156100ec57600080fd5b50356001600160a01b0316610328565b60408051918252519081900360200190f35b34801561011a57600080fd5b5061009e61033a565b34801561012f57600080fd5b506101386103dc565b604080516001600160a01b039092168252519081900360200190f35b34801561016057600080fd5b5061009e6004803603602081101561017757600080fd5b50356103eb565b34801561018a57600080fd5b506100fc61049a565b34801561019f57600080fd5b50610138600480360360208110156101b657600080fd5b50356104a0565b3480156101c957600080fd5b506100fc6104bb565b3480156101de57600080fd5b5061009e600480360360208110156101f557600080fd5b50356001600160a01b03166104c1565b600054600160a01b900460ff1615610257576040805162461bcd60e51b815260206004820152601060248201526f14185d5cd8589b194e881c185d5cd95960821b604482015290519081900360640190fd5b6001543410156102ae576040805162461bcd60e51b815260206004820181905260248201527f507269636520697320686967686572207468617420616d6f756e742073656e64604482015290519081900360640190fd5b60028054600090815260036020526040902080546001600160a01b03191633179055546102e290600163ffffffff6105b916565b6002553360009081526004602052604090205461030690600163ffffffff6105b916565b33600090815260046020526040902055565b600054600160a01b900460ff1690565b60046020526000908152604090205481565b61034261061a565b6000546001600160a01b03908116911614610392576040805162461bcd60e51b81526020600482018190526024820152600080516020610645833981519152604482015290519081900360640190fd5b600080546040516001600160a01b03909116907f8be0079c531659141344cd1fd0a4f28419497f9722a3daafe3b4186f6b6457e0908390a3600080546001600160a01b0319169055565b6000546001600160a01b031690565b6103f361061a565b6000546001600160a01b03908116911614610443576040805162461bcd60e51b81526020600482018190526024820152600080516020610645833981519152604482015290519081900360640190fd5b600054600160a01b900460ff1615610495576040805162461bcd60e51b815260206004820152601060248201526f14185d5cd8589b194e881c185d5cd95960821b604482015290519081900360640190fd5b600155565b60015481565b6003602052600090815260409020546001600160a01b031681565b60025481565b6104c961061a565b6000546001600160a01b03908116911614610519576040805162461bcd60e51b81526020600482018190526024820152600080516020610645833981519152604482015290519081900360640190fd5b6001600160a01b03811661055e5760405162461bcd60e51b815260040180806020018281038252602681526020018061061f6026913960400191505060405180910390fd5b600080546040516001600160a01b03808516939216917f8be0079c531659141344cd1fd0a4f28419497f9722a3daafe3b4186f6b6457e091a3600080546001600160a01b0319166001600160a01b0392909216919091179055565b600082820183811015610613576040805162461bcd60e51b815260206004820152601b60248201527f536166654d6174683a206164646974696f6e206f766572666c6f770000000000604482015290519081900360640190fd5b9392505050565b339056fe4f776e61626c653a206e6577206f776e657220697320746865207a65726f20616464726573734f776e61626c653a2063616c6c6572206973206e6f7420746865206f776e6572a2646970667358221220af1b0570fe72df2d5f34ec77c20061cd811bdfc18f6e42187a2de033aa4a06c364736f6c634300060b0033",
  "immutableReferences": {},
  "source": "//SPDX-License-Identifier: MIT\npragma solidity >=0.5.0 <0.7.0;\nimport \"@openzeppelin/contracts/access/Ownable.sol\";\nimport \"@openzeppelin/contracts/utils/Pausable.sol\";\nimport \"@openzeppelin/contracts/math/SafeMath.sol\";\n\ncontract HarvesterFactory is Ownable, Pausable {\n    using SafeMath for uint256;\n\n    uint256 public Price;\n\n    // struct Harvester {\n    //     uint8 Damage;\n    //     uint8 Load;\n    //     uint8 Capacity;\n    // }\n\n    // uint256[] public Harvesters;\n    uint256 public lastID = 0;\n    mapping(uint256 => address) public harvesterToOwner;\n    mapping(address => uint256) public ownerHarvesterCount;\n\n    constructor() public {\n        Price = 1 ether;\n    }\n\n    modifier isHarvesterOwner(uint256 _harvesterId) {\n        require(\n            msg.sender == harvesterToOwner[_harvesterId],\n            \"Not the owner of the harvester\"\n        );\n        _;\n    }\n\n    // function amountOfHarvesters() external view returns (uint256) {\n    //     return Harvesters.length;\n    // }\n\n    function setPrice(uint256 _price) external onlyOwner whenNotPaused() {\n        Price = _price;\n    }\n\n    function buyHarvester() external payable whenNotPaused() {\n        require(msg.value >= Price, \"Price is higher that amount send\");\n        //  uint256 id = Harvesters.length; // as first element is 0 --> length = next\n        harvesterToOwner[lastID] = msg.sender; // link id and address\n        lastID = lastID.add(1);\n        //   Harvesters.push(Harvester(0)); // create new Harvester with zero damage\n        // Harvesters.push(id); // create new Harvester with zero damage\n        ownerHarvesterCount[msg.sender] = ownerHarvesterCount[msg.sender].add(\n            1\n        );\n    }\n}\n",
  "sourcePath": "/Users/renaatmeeuws/Dev JS/Ethereum/DuneSpice/Contract/contracts/HarvesterFactory.sol",
  "compiler": {
    "name": "solc",
    "version": "0.6.11+commit.5ef660b1.Emscripten.clang"
  },
  "schemaVersion": "3.2.2",
  "updatedAt": "2020-08-01T13:20:30.562Z",
  "networkType": "ethereum",
  "devdoc": {
    "kind": "dev",
    "methods": {
      "owner()": {
        "details": "Returns the address of the current owner."
      },
      "paused()": {
        "details": "Returns true if the contract is paused, and false otherwise."
      },
      "renounceOwnership()": {
        "details": "Leaves the contract without owner. It will not be possible to call `onlyOwner` functions anymore. Can only be called by the current owner. NOTE: Renouncing ownership will leave the contract without an owner, thereby removing any functionality that is only available to the owner."
      },
      "transferOwnership(address)": {
        "details": "Transfers ownership of the contract to a new account (`newOwner`). Can only be called by the current owner."
      }
    },
    "version": 1
  },
  "userdoc": {
    "kind": "user",
    "methods": {},
    "version": 1
  }
}